{
  "_format": "hh-sol-artifact-1",
  "contractName": "TodoList",
  "sourceName": "hardhat/contracts/TodoList.sol",
  "abi": [
    {
      "anonymous": false,
      "inputs": [
        {
          "indexed": true,
          "internalType": "address",
          "name": "user",
          "type": "address"
        },
        {
          "indexed": false,
          "internalType": "uint256",
          "name": "index",
          "type": "uint256"
        },
        {
          "indexed": false,
          "internalType": "string",
          "name": "content",
          "type": "string"
        }
      ],
      "name": "TodoAdded",
      "type": "event"
    },
    {
      "anonymous": false,
      "inputs": [
        {
          "indexed": true,
          "internalType": "address",
          "name": "user",
          "type": "address"
        },
        {
          "indexed": false,
          "internalType": "uint256",
          "name": "index",
          "type": "uint256"
        }
      ],
      "name": "TodoDeleted",
      "type": "event"
    },
    {
      "anonymous": false,
      "inputs": [
        {
          "indexed": true,
          "internalType": "address",
          "name": "user",
          "type": "address"
        },
        {
          "indexed": false,
          "internalType": "uint256",
          "name": "index",
          "type": "uint256"
        },
        {
          "indexed": false,
          "internalType": "bool",
          "name": "completed",
          "type": "bool"
        }
      ],
      "name": "TodoToggled",
      "type": "event"
    },
    {
      "inputs": [
        {
          "internalType": "string",
          "name": "_content",
          "type": "string"
        }
      ],
      "name": "addTodo",
      "outputs": [],
      "stateMutability": "nonpayable",
      "type": "function"
    },
    {
      "inputs": [
        {
          "internalType": "uint256",
          "name": "_index",
          "type": "uint256"
        }
      ],
      "name": "deleteTodo",
      "outputs": [],
      "stateMutability": "nonpayable",
      "type": "function"
    },
    {
      "inputs": [
        {
          "internalType": "uint256",
          "name": "_index",
          "type": "uint256"
        }
      ],
      "name": "getTodo",
      "outputs": [
        {
          "internalType": "string",
          "name": "content",
          "type": "string"
        },
        {
          "internalType": "bool",
          "name": "completed",
          "type": "bool"
        }
      ],
      "stateMutability": "view",
      "type": "function"
    },
    {
      "inputs": [],
      "name": "getTodoCount",
      "outputs": [
        {
          "internalType": "uint256",
          "name": "",
          "type": "uint256"
        }
      ],
      "stateMutability": "view",
      "type": "function"
    },
    {
      "inputs": [],
      "name": "getTodos",
      "outputs": [
        {
          "components": [
            {
              "internalType": "string",
              "name": "content",
              "type": "string"
            },
            {
              "internalType": "bool",
              "name": "completed",
              "type": "bool"
            }
          ],
          "internalType": "struct TodoList.Todo[]",
          "name": "",
          "type": "tuple[]"
        }
      ],
      "stateMutability": "view",
      "type": "function"
    },
    {
      "inputs": [
        {
          "internalType": "uint256",
          "name": "_index",
          "type": "uint256"
        }
      ],
      "name": "toggleTodo",
      "outputs": [],
      "stateMutability": "nonpayable",
      "type": "function"
    }
  ],
  "bytecode": "0x608060405234801561001057600080fd5b50610bd6806100206000396000f3fe608060405234801561001057600080fd5b50600436106100625760003560e01c8063104a7cd8146100675780636e3c67381461008a57806395ffebf51461009f578063c33926cb146100b2578063dc00282c146100c7578063dd68afb6146100da575b600080fd5b336000908152602081905260409020546040519081526020015b60405180910390f35b61009d61009836600461071f565b6100fb565b005b61009d6100ad36600461074e565b610278565b6100ba61037e565b6040516100819190610845565b61009d6100d536600461071f565b610487565b6100ed6100e836600461071f565b6105aa565b6040516100819291906108bd565b3360009081526020819052604090205481106101325760405162461bcd60e51b8152600401610129906108e1565b60405180910390fd5b3360009081526020819052604081205461014e90600190610908565b90508082146101f3573360009081526020819052604090208054829081106101785761017861092f565b9060005260206000209060020201600080336001600160a01b03166001600160a01b0316815260200190815260200160002083815481106101bb576101bb61092f565b60009182526020909120600290910201806101d683826109ce565b506001918201549101805460ff191660ff90921615159190911790555b33600090815260208190526040902080548061021157610211610aaf565b6000828152602081206000199092019160028302019061023182826106c9565b50600101805460ff19169055905560405182815233907f24d84cd6bd5cc33dafa556a214e7d9e1b4fccca98b3e7d1413909e4710f02ff39060200160405180910390a25050565b60008151116102c95760405162461bcd60e51b815260206004820152601760248201527f436f6e74656e742063616e6e6f7420626520656d7074790000000000000000006044820152606401610129565b336000908152602081815260408083208151808301909252848252818301849052805460018101825590845291909220825160029092020190819061030e9082610ac5565b506020918201516001918201805460ff1916911515919091179055336000818152928390526040909220547f1d7303a9da3d6d58ee2b1b1a7d6676848e0b02914499b48678bb7dff079a01509161036491610908565b83604051610373929190610b7f565b60405180910390a250565b33600090815260208181526040808320805482518185028101850190935280835260609492939192909184015b8282101561047e57838290600052602060002090600202016040518060400160405290816000820180546103de90610945565b80601f016020809104026020016040519081016040528092919081815260200182805461040a90610945565b80156104575780601f1061042c57610100808354040283529160200191610457565b820191906000526020600020905b81548152906001019060200180831161043a57829003601f168201915b505050918352505060019182015460ff1615156020918201529183529290920191016103ab565b50505050905090565b3360009081526020819052604090205481106104b55760405162461bcd60e51b8152600401610129906108e1565b3360009081526020819052604090208054829081106104d6576104d661092f565b6000918252602080832060016002909302019190910154338352908290526040909120805460ff9092161591839081106105125761051261092f565b60009182526020808320600292909202909101600101805460ff19169315159390931790925533808252918190526040902080547fcbddb790a648f90ff3990d3ebbaac6c8dea5a111bd2e7069b7695646081fa1749184918290811061057a5761057a61092f565b6000918252602090912060016002909202010154604051610373929160ff16909182521515602082015260400190565b336000908152602081905260408120546060919083106105dc5760405162461bcd60e51b8152600401610129906108e1565b3360009081526020819052604081208054859081106105fd576105fd61092f565b906000526020600020906002020160405180604001604052908160008201805461062690610945565b80601f016020809104026020016040519081016040528092919081815260200182805461065290610945565b801561069f5780601f106106745761010080835404028352916020019161069f565b820191906000526020600020905b81548152906001019060200180831161068257829003601f168201915b50505091835250506001919091015460ff1615156020918201528151910151909590945092505050565b5080546106d590610945565b6000825580601f106106e5575050565b601f0160209004906000526020600020908101906107039190610706565b50565b5b8082111561071b5760008155600101610707565b5090565b60006020828403121561073157600080fd5b5035919050565b634e487b7160e01b600052604160045260246000fd5b60006020828403121561076057600080fd5b813567ffffffffffffffff8082111561077857600080fd5b818401915084601f83011261078c57600080fd5b81358181111561079e5761079e610738565b604051601f8201601f19908116603f011681019083821181831017156107c6576107c6610738565b816040528281528760208487010111156107df57600080fd5b826020860160208301376000928101602001929092525095945050505050565b6000815180845260005b8181101561082557602081850181015186830182015201610809565b506000602082860101526020601f19601f83011685010191505092915050565b60006020808301818452808551808352604092508286019150828160051b87010184880160005b838110156108af57888303603f1901855281518051878552610890888601826107ff565b918901511515948901949094529487019492509086019060010161086c565b509098975050505050505050565b6040815260006108d060408301856107ff565b905082151560208301529392505050565b6020808252600d908201526c092dcecc2d8d2c840d2dcc8caf609b1b604082015260600190565b8181038181111561092957634e487b7160e01b600052601160045260246000fd5b92915050565b634e487b7160e01b600052603260045260246000fd5b600181811c9082168061095957607f821691505b60208210810361097957634e487b7160e01b600052602260045260246000fd5b50919050565b601f8211156109c957600081815260208120601f850160051c810160208610156109a65750805b601f850160051c820191505b818110156109c5578281556001016109b2565b5050505b505050565b8181036109d9575050565b6109e38254610945565b67ffffffffffffffff8111156109fb576109fb610738565b610a0f81610a098454610945565b8461097f565b6000601f821160018114610a435760008315610a2b5750848201545b600019600385901b1c1916600184901b178455610aa8565b600085815260209020601f19841690600086815260209020845b83811015610a7d5782860154825560019586019590910190602001610a5d565b5085831015610a9b5781850154600019600388901b60f8161c191681555b50505060018360011b0184555b5050505050565b634e487b7160e01b600052603160045260246000fd5b815167ffffffffffffffff811115610adf57610adf610738565b610aed81610a098454610945565b602080601f831160018114610b225760008415610b0a5750858301515b600019600386901b1c1916600185901b1785556109c5565b600085815260208120601f198616915b82811015610b5157888601518255948401946001909101908401610b32565b5085821015610b6f5787850151600019600388901b60f8161c191681555b5050505050600190811b01905550565b828152604060208201526000610b9860408301846107ff565b94935050505056fea2646970667358221220cf51518aeadd99673e48f179e748358eae49399061223df9aad7e4d40d85115a64736f6c63430008140033",
  "linkReferences": {},
  "deployedLinkReferences": {}
}